:020000040000FA
:0600000000008A110F2828
:10000800FE00030E83120313C5000408C6000A0885
:10001800C7008A15292E83010308A0008A11142815
:1000280083136630FD000C30FE00AF30FF005A30FD
:1000380084008A15CE248A11A0308400C8308A151D
:1000480087248A112130840044308A1587248A1134
:1000580083018A11F82C83120313CF00542A4C0809
:10006800CD004D08AC004C08CD004D08BC00D02A8E
:100078004C08CD004D07CE004E08AC074C08CD000B
:100088004D08BC07D02A4C08CD0001300310CD0D17
:10009800FF3E031D4A2803104D0DCE004E08AC0745
:1000A8004C08CD004D08BC07D02A4C08CD000230C2
:1000B8000310CD0DFF3E031D5C2803104D0DCE002F
:1000C8004E08AC074C08CD004D08BC07D02A0A30B2
:1000D800CD004D08C8004C088A15DB248A1183120C
:1000E8000313CE004E08AC074C08CD004D08BC07E2
:1000F800D02A4C0EF039CD004C084C07CD07CD075F
:100108004D08CE004E08AC074C08CD004D08BC0782
:10011800D02A2830CD004D08C8004C088A15DB24A9
:100128008A1183120313CE004E08AC0778284C08B6
:10013800CD004D08BC073C1CA228A328D02AFF30BC
:10014800CD004D08AC00D02A4C08CD004D08AD00BC
:100158004C08CD004D08BB00D02A4C08CD004D07F7
:10016800CE004E08AD074C08CD004D08BB07D02A7D
:100178004C08CD0001300310CD0DFF3E031DBF28F4
:1001880003104D0DCE004E08AD074C08CD004D08AC
:10019800BB07D02A4C08CD0002300310CD0DFF3E1E
:1001A800031DD12803104D0DCE004E08AD074C0895
:1001B800CD004D08BB07D02A0A30CD004D08C80035
:1001C8004C088A15DB248A1183120313CE004E08CB
:1001D800AD074C08CD004D08BB07D02A4C0EF039AE
:1001E800CD004C084C07CD07CD074D08CE004E0872
:1001F800AD074C08CD004D08BB07D02A4C08CD00F0
:100208004D08BB073B1C09290A29D02AFF30CD001D
:100218004D08AD00D02A4C08CD004D08AF004C0861
:10022800CD004D08BA00D02A4C08CD004D07CE00AD
:100238004E08AF074C08CD004D08BA07D02A4C0825
:10024800CD0001300310CD0DFF3E031D26290310FC
:100258004D0DCE004E08AF074C08CD004D08BA072B
:10026800D02A4C08CD0002300310CD0DFF3E031DEF
:10027800382903104D0DCE004E08AF074C08CD00AD
:100288004D08BA07D02A0A30CD004D08C8004C08DE
:100298008A15DB248A1183120313CE004E08AF0798
:1002A8004C08CD004D08BA07D02A4C0EF039CD00C5
:1002B8004C084C07CD07CD074D08CE004E08AF07B8
:1002C8004C08CD004D08BA07D02A4C08CD004D087F
:1002D800AE0054294C08CD004D07CE004E08AE079D
:1002E8004C08CD004D08BA07D02A4C08CD00013083
:1002F8000310CD0DFF3E031D7C2903104D0DCE00CC
:100308004E08AE074C08CD004D08BA07D02A4C0855
:10031800CD004D08B00054294C08CD004D07CE0043
:100328004E08B0074C08CD004D08BA07D02A4C0833
:10033800CD0001300310CD0DFF3E031D9E29031093
:100348004D0DCE004E08B0074C08CD004D08BA0739
:10035800D02A4C08CD0002300310CD0DFF3E031DFE
:10036800B02903104D0DCE004E08B0074C08CD0043
:100378004D08BA07D02A0A30CD004D08C8004C08ED
:100388008A15DB248A1183120313CE004E08B007A6
:1003980054294C08CD004D08B10054294C08CD0013
:1003A8004D07CE004E08B1074C08CD004D08BA07DE
:1003B800D02A4C08CD0001300310CD0DFF3E031D9F
:1003C800E02903104D0DCE004E08B1074C08CD00B2
:1003D8004D08BA07D02A4C08CD0002300310CD0DC5
:1003E800FF3E031DF22903104D0DCE004E08B10744
:1003F8004C08CD004D08BA07D02A0A30CD004D0868
:10040800C8004C088A15DB248A1183120313CE0016
:100418004E08B10754294C0EF039CD004C084C0752
:10042800CD07CD074D08CE004E08B1074C08CD00CA
:100438004D08BA07D02A2830CD004D08C8004C080E
:100448008A15DB248A1183120313CE004E08B107E4
:1004580054295030CD004D08C8004C088A15DB24BB
:100468008A1183120313CE004E08B10754294C0891
:10047800CD004D08BA073A1C422A432AD02AFF3039
:10048800CD004D08AF00FF30CD004D08B000FF3063
:10049800CD004D08B100FF30CD004D08AE00D02A88
:1004A8004F08CD00CE014E08003A03195C2AD02A25
:1004B8004D08153A03193328033A03193C28013A21
:1004C800031947280F3A03195928013A03196B28C9
:1004D800033A03197D28013A03198D28073A0319AD
:1004E8009B28013A0319A828033A0319B128013AAD
:1004F8000319BC283F3A0319CE28013A0319E0280A
:10050800033A0319F228013A03190229073A031991
:100518000F29013A03191829033A03192329013A23
:10052800031935290F3A03194729013A031959299B
:10053800033A03196929013A03196E29073A03197D
:100548007929013A03198B29033A03199029013AA9
:1005580003199B291F3A0319AD29013A0319BF2929
:10056800033A0319CD29013A0319D229073A031985
:10057800DD29013A0319EF29033A0319012A013A3F
:1005880003190F2A0F3A03191F2A013A03192D2AB2
:10059800033A03193B2AD02A080083120313D50013
:1005A8000630D1005108D6008230D1005108C80069
:1005B80055088A150D258A11033083120313D100BB
:1005C8005108C8005008023E8400831300088A15A9
:1005D800DB248A11283E84008A1500208A118312A0
:1005E8000313D2005508063E840052088313800086
:1005F8000130D1005108D6070330D1005108C80096
:100608005008023E840000088A15DB248A11293E1E
:1006180084008A1500208A1183120313D200560819
:100628005507D30053088400520883138000013013
:10063800D1005108D6070330D1005108C80050082E
:10064800023E840000088A15DB248A112A3E8400B1
:100658008A1500208A1183120313D2005608550701
:10066800D300530884005208831380000130D1005E
:100678005108D6072030D10056085507D200520835
:100688008400510880000130D1005108D6070A3093
:10069800C8000030C9005008033E84000008D1009B
:1006A800D2015108CA005208CB008A1597258A1131
:1006B800831203134808303ED30056085507D40068
:1006C800540884005308831380000130D100510876
:1006D800D6070A30C8000030C9005008033E84001D
:1006E8000008D100D2015108CA005208CB008A156F
:1006F8005B258A11831203134808303ED30056083D
:100708005507D4005408840053088313800001302F
:10071800D1005108D6072E30D10056085507D2000F
:1007280052088400510880000130D1005108D607D2
:100738000A30C8000030C9005008043E8400000890
:10074800D100D2015108CA005208CB008A1597255A
:100758008A11831203134808303ED3005608550700
:10076800D400540884005308831380000130D1005A
:100778005108D6070A30C8000030C9005008043EA6
:1007880084000008D100D2015108CA005208CB00E9
:100798008A155B258A11831203134808303ED3005B
:1007A80056085507D4005408840053088313800062
:1007B8000130D1005108D6072E30D1005608550710
:1007C800D20052088400510880000130D10051083D
:1007D800D6073230D10056085507D2005208840097
:1007E800510880000130D1005108D6073030D100BF
:1007F80056085507D200520884005108800001307D
:10080800D1005108D6070A30C8000030C900500886
:10081800053E84000008D100D2015108CA005208E0
:10082800CB008A1597258A11831203134808303E96
:10083800D30056085507D40054088400530883137E
:1008480080000130D1005108D6070A30C8000030B6
:10085800C9005008053E84000008D100D2015108A3
:10086800CA005208CB008A155B258A11831203132C
:100878004808303ED30056085507D4005408840071
:100888005308831380000130D1005108D607203067
:10089800D10056085507D20052088400510880003C
:1008A8000130D1005108D6070A30C8000030C9000D
:1008B800500A84000008D100D2015108CA00520829
:1008C800CB008A1597258A11831203134808303EF6
:1008D800D30056085507D4005408840053088313DE
:1008E80080000130D1005108D6070A30C800003016
:1008F800C900500A84000008D100D2015108CA007A
:100908005208CB008A155B258A1183120313480805
:10091800303ED30056085507D400540884005308C5
:10092800831380000130D1005108D6073A30D10036
:1009380056085507D200520884005108800001303B
:10094800D1005108D6070A30C8000030C900500845
:1009580084000008D100D2015108CA005208CB0017
:100968008A1597258A11831203134808303ED3004D
:1009780056085507D4005408840053088313800090
:100988000130D1005108D6070A30C8000030C9002C
:10099800500884000008D100D2015108CA0052084A
:1009A800CB008A155B258A11831203134808303E51
:1009B800D30056085507D4005408840053088313FD
:1009C80080000130D1005108D6070A30D1005608FE
:1009D8005507D20052088400510880000130D10028
:1009E8005108D6075608080083120313D9018A1143
:1009F800EA278A1183120313861086166030D700FF
:100A08005708C800A0308A150D258A11A0308A150C
:100A1800F2248A11831203134808D7005708C1002B
:100A28004008A03E84008313000899000130D700D5
:100A38005708C007831603130C16033083123502B8
:100A4800E93003193402031C2A2D2B2D392DB4014A
:100A5800B5013F088A158E268A1183120313BF0138
:100A6800B201B301BE01D901D90A03303302E8301B
:100A780003193202031C412D422D482DB201B30146
:100A88000130D7005708BE073C303E06031D4D2DE8
:100A98004E2D572DBE0100308A158E268A118312DD
:100AA8000313D901D90A590803195B2D5C2D802D30
:100AB80060308A152E258A11603083120313D700FF
:100AC8005708D000A0308A11D1228A11831203134B
:100AD800D8005808C100C0014008A03E8400831314
:100AE800000899000130D7005708C0078316031380
:100AF8000C1683120313D90100303702283003196A
:100B08003602031C882D892DA02D00303702833032
:100B1800031936020318912D922DA02DB601B701A5
:100B2800CC013F088A112F208A1101308312031348
:100B3800D7005708BF07BB2D003037028C30031988
:100B48003602031CA82DA92DBB2D00303702E73033
:100B5800031936020318B12DB22DBB2DB601B7010A
:100B6800CC01CC0A3F088A112F208A11992D8C1D9F
:100B7800BE2DBF2D212D94138C113D08031DC52DAD
:100B8800C62DC92D06150612DB2D06303D06031DA0
:100B9800CE2DCF2DD22D06168611DB2D08303D0621
:100BA800031DD72DD82DDB2D86150611DB2D3D080D
:100BB800213E84008313000893000130D7005708B2
:100BC800BD070B303D06031DEA2DEB2DEC2DBD01B5
:100BD80006303D06031DF12DF22D3C2ED00160306C
:100BE8008A1540278A1183120313D7005708A100DA
:100BF800D001D00A60308A1540278A118312031366
:100C0800D7005708A2000230D7005708D00060303C
:100C18008A1540278A1183120313D8005808A300A5
:100C28000330D7005708D00060308A1540278A1152
:100C380083120313D8005808A4000430D7005708BB
:100C4800D0003E088A119E278A1183120313D80008
:100C58005808A5000530D7005708D0003E088A116B
:100C68009E278A1183120313D8005808A600212D45
:100C780008303D06031D412E422E682E0130D70054
:100C8800430A482E0310D70DFF3E031D462E570872
:100C9800D8005808A7004308D7005708D00060308C
:100CA8008A11A6268A1183120313D8005808A800AF
:100CB8000130D7005708C30708304306031D652EC7
:100CC800662E212DC301212D3D08031D6C2E6D2E8E
:100CD800A32E0130D700420A732E0310D70DFF3E12
:100CE800031D712E5708D8005808A9004208D700DC
:100CF8005708CC00CD0160308A15DD258A11831292
:100D08000313D8005808AA004208D7005708CC0097
:100D1800CD01CD0A60308A15DD258A1183120313AF
:100D2800D8005808AB000130D7005708C207033075
:100D38004206031DA02EA12EA32EC201212D212D76
:100D48008A110F2883120313D500D40155080319FB
:100D5800AE2EAF2E9C2F7A2F0A30C8000030C90063
:100D68005508053E840083130008D100D2015108BC
:100D7800CA005208CB008A155B258A118312031317
:100D88004808563E84008A1500208A11D30053086B
:100D9800D4009C2F0A30C8000030C9005508053E11
:100DA800840083130008D100D2015108CA005208F8
:100DB800CB008A1597258A11831203134808563EDB
:100DC80084008A1500208A11D3005308D4009C2F70
:100DD800563084008A1500208A11D1005108D400A9
:100DE8009C2F583084008A1500208A11D1005108A0
:100DF800D4009C2F0A30C8000030C9005508043EB2
:100E0800840083130008D100D2015108CA00520897
:100E1800CB008A155B258A11831203134808563EB6
:100E280084008A1500208A11803ED3005308D4001C
:100E38009C2F0A30C8000030C9005508043E8400C1
:100E480083130008D100D2015108CA005208CB0010
:100E58008A1597258A11831203134808563E840081
:100E68008A1500208A11D3005308D4009C2F0A3019
:100E7800C8000030C9005508033E840083130008E9
:100E8800D100D2015108CA005208CB008A155B254F
:100E98008A11831203134808563E84008A150020DD
:100EA8008A11803ED3005308D4009C2F0A30C80012
:100EB8000030C9005508033E840083130008D100A0
:100EC800D2015108CA005208CB008A1597258A1109
:100ED800831203134808563E84008A1500208A119D
:100EE800D3005308D4009C2FD4019C2F5008D10064
:100EF800D2015208003A0319822F782F5108003A7C
:100F08000319B02E013A0319CE2E033A0319EC2E19
:100F1800013A0319F52E073A0319FE2E013A03196F
:100F28001D2F033A03193B2F013A03195A2F782F23
:100F38005408080083120313D500D4013C3055022D
:100F48000318A72FA82FE82F04305006031DAD2F34
:100F5800AE2FC82F0A30C8000030C9005508D1008C
:100F6800D2015108CA005208CB008A1597258A1168
:100F78008312031348084C3E84008A1500208A1106
:100F8800D3005308D400E82F05305006031DCD2F99
:100F9800CE2FE82F0A30C8000030C9005508D1000C
:100FA800D2015108CA005208CB008A155B258A1164
:100FB8008312031348084C3E84008A1500208A11C6
:100FC800D3005308D400E82F540808008A15BB241E
:100FD8008A118A15A4248A118A1599248A118A15D6
:100FE8008F248A110B168316031301138C160C1405
:060FF8000B178B17080027
:1010000008308A000408840A820700348C344C3487
:101010008934CB348C3468349034D934223400345D
:101020008C3468348C344C3422340034233402340D
:101030009034D9348934CB348C34683499340234C4
:1010400099343A34993483341934D33499345A3432
:101050008C344C341934D3348934CB348C346834E4
:101060004D344F344E344434493445344D3449348E
:10107000543444344F344E3446345234523453345E
:1010800041344D3453344F344E341F341C341F34E8
:101090001E341F341E341F341F341E341F341E34BC
:1010A0001F34BE3412347C347634D234E634EE3419
:1010B0003234FE34F6343F3406345B344F34663415
:1010C0006D347D3407347F346F3449346E34693481
:1010D0007434693461346C3469347A34613474340E
:1010E00069346F346E34203473347534633463344C
:1010F000653473347334663475346C346C347934D9
:10110000203464346F346E3465340A34003454341B
:0C11100069346D3465343A342034003406
:10190E0064008001840A0406031900340406882C3E
:10191E0001308312031390000C10F6308F003C3010
:10192E008E00080040308316031394002230831279
:10193E00031394008C119301080040308316031397
:10194E009900243098008030831203139800080009
:10195E0000340034013401340134143400340034C2
:10196E0001340134013414340630831603139F00FE
:10197E008501C130860080308700831203138501F4
:10198E008601870108007E088A007F0882008A157A
:10199E00CA248A158000840A04087D0603190034BF
:1019AE00FF0A0319FE0ACE2C83120313CB00CA01C1
:1019BE004B1CE22CE32CE72C4808C9004908CA0747
:1019CE000310C80D0310CB0C4B08031DEF2CF02C8D
:1019DE00DF2C4A08080083120313CB004B08CA0001
:1019EE004A08CC00FE2C0130CA004A08CC074C082D
:1019FE00840083130008031D052D062DFA2C4B08B9
:101A0E004C02C800C901C81BC90308008312031386
:101A1E00CB004B08C9004908CA001D2D0130C90072
:101A2E004908CA070130C9004908C8074808840098
:101A3E008A1500208A15C9004A08840049088313B4
:101A4E0080000008031D2C2D2D2D152D080083124E
:101A5E000313C9005D08C8004908033E8400480806
:101A6E00831380005C08C8004908023E84004808C1
:101A7E0080005B08C800490A8400480880005A08A4
:101A8E00C80049088400480880005E08C80049085C
:101A9E00043E8400480880005F08C8004908053EDF
:101AAE008400480880000800831203134808490484
:101ABE000319622D632D922DCD01CD0A712D0130AA
:101ACE000310C80DC90DFF3E031D672D0130CC005C
:101ADE004C08CD07C91F742D752D662D49084B0274
:101AEE00031D7B2D48084A02031C7E2D7F2D852D5C
:101AFE004808CA024908031CCB03CB02013003106D
:101B0E00C90CC80CFF3E031D862D0130CD02031DEE
:101B1E00912D922D752D4B08C9004A08C80008005A
:101B2E0083120313CD01CE01480849040319A02DD9
:101B3E00A12DD82DCF01CF0AAF2D01300310C80D26
:101B4E00C90DFF3E031DA52D0130CC004C08CF075B
:101B5E00C91FB22DB32DA42D01300310CD0DCE0D06
:101B6E00FF3E031DB42D49084B02031DC02D48082E
:101B7E004A02031CC32DC42DCB2D4808CA024908A6
:101B8E00031CCB03CB024D1401300310C90CC80C3F
:101B9E00FF3E031DCC2D0130CF02031DD72DD82DB6
:101BAE00B32D4E08C9004D08C80008008312031358
:101BBE00D400D30154080319E52DE62D272E540821
:101BCE00023E8400831300080319EE2DEF2D272EFD
:101BDE005408023E8400083000020318F72DF82D39
:101BEE00272E03304C020318FD2DFE2D272E02301A
:101BFE004D020318032E042E272E4C08CE00013062
:101C0E000310CE0DFF3E031D072EFB304E07CF00F7
:101C1E000630D0005008C8005408023E8400000868
:101C2E008A15DB248A15831203134F07D1004D0842
:101C3E00510784008A1500208A15D2005208D3005D
:101C4E00530808000C1C2C2E2D2E3E2E0C10F63098
:101C5E008F003C308E000130B8070318B90A0030EF
:101C6E00B9070130B2070318B30A0030B3078C1E50
:101C7E00412E422E422E0C1E452E462E682E8316C7
:101C8E0003130C1E4B2E4C2E682E8312031340088A
:101C9E00A03E84008313000899000130C40044085C
:101CAE00C00728304006031D5D2E5E2E5F2EC0013C
:101CBE0040084106031D642E652E682E83160313FD
:101CCE000C128B1C6B2E6C2E842E8B108316031312
:101CDE00011F722E732E7B2E0113831203133908EC
:101CEE00B5003808B400822E011783120313390889
:101CFE00B7003808B600B801B901831247088A0048
:101D0E0046088400450E8300FE0E7E0E09008312E7
:101D1E000313CA002C0A0319952E962EA12E3B30C2
:101D2E004A06031D9B2E9C2EA12E2C08C800480887
:101D3E00DA00B02E0130C8004808DA073C305A06E7
:101D4E00031DAA2EAB2EB02EDA010130C8004808B2
:101D5E00DB072D0A0319B42EB52EC02E3B304A06D2
:101D6E00031DBA2EBB2EC02E2D08C8004808DB005E
:101D7E00CB2E18305B06031DC52EC62ECB2EDB01D7
:101D8E000130C8004808DD072F0A0319CF2ED02EC8
:101D9E00DB2E3B304A06031DD52ED62EDB2E2F080A
:101DAE00C8004808DD00052F5E080319DF2EE02E5F
:101DBE00052F5E083F3E84008A1500208A15C80054
:101DCE004808C90002305E06031DEE2EEF2EF92ED6
:101DDE005F080339031DF42EF52EF92E0130C800CD
:101DEE004808C9075D084906031DFE2EFF2E052F64
:101DFE00DD01DD0A0130C8004808DE07300A03198C
:101E0E00092F0A2F152F3B304A06031D0F2F102FB7
:101E1E00152F3008C8004808DE00212F0D305E0651
:101E2E00031D1A2F1B2F212FDE01DE0A0130C800E1
:101E3E004808DF07310A0319252F262F302F3B3094
:101E4E004A06031D2B2F2C2F302F3108C8004808AF
:101E5E00DF002E0A0319342F352F3F2F3B304A0651
:101E6E00031D3A2F3B2F3F2F2E08C8004808DC00D9
:101E7E00080083120313D500D40155080319482F07
:101E8E00492FFE2FE82F550A84000B3083130002D2
:101E9E00031C522F532FFE2F550A840018300002B8
:101EAE0003185A2F5B2FFE2F0A30C8000030C900CE
:101EBE00550A84000008D100D2015108CA00520808
:101ECE00CB008A1597258A158312031348084C3EBA
:101EDE0084008A1500208A15D3005308D400FE2FE3
:101EEE00550A840018308313000203187F2F802FA9
:101EFE00FE2F0A30C8000030C900550A84000008C1
:101F0E00D100D2015108CA005208CB008A155B25B8
:101F1E008A158312031348084C3E84008A1500204C
:101F2E008A15013ED3005308D400FE2F55088400B5
:101F3E003C30831300020318A52FA62FFE2F0A3064
:101F4E00C8000030C900550884000008D100D20135
:101F5E005108CA005208CB008A1597258A1583129C
:101F6E00031348084C3E84008A1500208A15D300BE
:101F7E005308D400FE2F550884003C308313000212
:101F8E000318CA2FCB2FFE2F0A30C8000030C9000D
:101F9E00550884000008D100D2015108CA00520829
:101FAE00CB008A155B258A158312031348084C3E15
:101FBE0084008A1500208A15013ED3005308D400F0
:101FCE00FE2F5008D100D2015208003A0319F02F0B
:101FDE00FE2F5108003A03194A2F013A0319772FA1
:101FEE00033A03199D2F013A0319C22FFE2F5408ED
:021FFE000800D9
:02400E00FA3F77
:00000001FF
